{
  "contractName": "PalToken",
  "abi": [
    {
      "anonymous": false,
      "inputs": [
        {
          "indexed": true,
          "internalType": "address",
          "name": "_owner",
          "type": "address"
        },
        {
          "indexed": true,
          "internalType": "address",
          "name": "_approved",
          "type": "address"
        },
        {
          "indexed": false,
          "internalType": "uint256",
          "name": "_tokenId",
          "type": "uint256"
        }
      ],
      "name": "Approval",
      "type": "event"
    },
    {
      "anonymous": false,
      "inputs": [
        {
          "indexed": true,
          "internalType": "address",
          "name": "_from",
          "type": "address"
        },
        {
          "indexed": true,
          "internalType": "address",
          "name": "_to",
          "type": "address"
        },
        {
          "indexed": false,
          "internalType": "uint256",
          "name": "_tokenId",
          "type": "uint256"
        }
      ],
      "name": "Transfer",
      "type": "event"
    },
    {
      "inputs": [
        {
          "internalType": "address",
          "name": "_to",
          "type": "address"
        },
        {
          "internalType": "uint256",
          "name": "_tokenId",
          "type": "uint256"
        }
      ],
      "name": "_mint",
      "outputs": [],
      "stateMutability": "nonpayable",
      "type": "function"
    },
    {
      "inputs": [
        {
          "internalType": "address",
          "name": "_owner",
          "type": "address"
        }
      ],
      "name": "balanceOf",
      "outputs": [
        {
          "internalType": "uint256",
          "name": "_balance",
          "type": "uint256"
        }
      ],
      "stateMutability": "view",
      "type": "function"
    },
    {
      "inputs": [],
      "name": "name",
      "outputs": [
        {
          "internalType": "string",
          "name": "",
          "type": "string"
        }
      ],
      "stateMutability": "view",
      "type": "function"
    },
    {
      "inputs": [],
      "name": "owner",
      "outputs": [
        {
          "internalType": "address",
          "name": "",
          "type": "address"
        }
      ],
      "stateMutability": "view",
      "type": "function"
    },
    {
      "inputs": [
        {
          "internalType": "uint256",
          "name": "_tokenId",
          "type": "uint256"
        }
      ],
      "name": "ownerOf",
      "outputs": [
        {
          "internalType": "address",
          "name": "",
          "type": "address"
        }
      ],
      "stateMutability": "view",
      "type": "function"
    },
    {
      "inputs": [
        {
          "internalType": "uint256",
          "name": "",
          "type": "uint256"
        }
      ],
      "name": "pals",
      "outputs": [
        {
          "internalType": "string",
          "name": "outer",
          "type": "string"
        },
        {
          "internalType": "string",
          "name": "inner",
          "type": "string"
        }
      ],
      "stateMutability": "view",
      "type": "function"
    },
    {
      "inputs": [],
      "name": "symbol",
      "outputs": [
        {
          "internalType": "string",
          "name": "",
          "type": "string"
        }
      ],
      "stateMutability": "view",
      "type": "function"
    },
    {
      "inputs": [
        {
          "internalType": "address",
          "name": "_owner",
          "type": "address"
        }
      ],
      "name": "tokensOf",
      "outputs": [
        {
          "internalType": "uint256[]",
          "name": "",
          "type": "uint256[]"
        }
      ],
      "stateMutability": "view",
      "type": "function"
    },
    {
      "inputs": [
        {
          "internalType": "string",
          "name": "_outer",
          "type": "string"
        },
        {
          "internalType": "string",
          "name": "_inner",
          "type": "string"
        }
      ],
      "name": "mint",
      "outputs": [],
      "stateMutability": "payable",
      "type": "function"
    },
    {
      "inputs": [
        {
          "internalType": "uint256",
          "name": "_palId",
          "type": "uint256"
        }
      ],
      "name": "getPal",
      "outputs": [
        {
          "internalType": "string",
          "name": "outer",
          "type": "string"
        },
        {
          "internalType": "string",
          "name": "inner",
          "type": "string"
        }
      ],
      "stateMutability": "view",
      "type": "function"
    }
  ],
  "bytecode": "0x60806040526040518060400160405280600881526020017f50616c546f6b656e000000000000000000000000000000000000000000000000815250600390816200004a919062000361565b506040518060400160405280600381526020017f50616c00000000000000000000000000000000000000000000000000000000008152506004908162000091919062000361565b503480156200009f57600080fd5b5033600260006101000a81548173ffffffffffffffffffffffffffffffffffffffff021916908373ffffffffffffffffffffffffffffffffffffffff16021790555062000448565b600081519050919050565b7f4e487b7100000000000000000000000000000000000000000000000000000000600052604160045260246000fd5b7f4e487b7100000000000000000000000000000000000000000000000000000000600052602260045260246000fd5b600060028204905060018216806200016957607f821691505b6020821081036200017f576200017e62000121565b5b50919050565b60008190508160005260206000209050919050565b60006020601f8301049050919050565b600082821b905092915050565b600060088302620001e97fffffffffffffffffffffffffffffffffffffffffffffffffffffffffffffffff82620001aa565b620001f58683620001aa565b95508019841693508086168417925050509392505050565b6000819050919050565b6000819050919050565b6000620002426200023c62000236846200020d565b62000217565b6200020d565b9050919050565b6000819050919050565b6200025e8362000221565b620002766200026d8262000249565b848454620001b7565b825550505050565b600090565b6200028d6200027e565b6200029a81848462000253565b505050565b5b81811015620002c257620002b660008262000283565b600181019050620002a0565b5050565b601f8211156200031157620002db8162000185565b620002e6846200019a565b81016020851015620002f6578190505b6200030e62000305856200019a565b8301826200029f565b50505b505050565b600082821c905092915050565b6000620003366000198460080262000316565b1980831691505092915050565b600062000351838362000323565b9150826002028217905092915050565b6200036c82620000e7565b67ffffffffffffffff811115620003885762000387620000f2565b5b62000394825462000150565b620003a1828285620002c6565b600060209050601f831160018114620003d95760008415620003c4578287015190505b620003d0858262000343565b86555062000440565b601f198416620003e98662000185565b60005b828110156200041357848901518255600182019150602085019450602081019050620003ec565b868310156200043357848901516200042f601f89168262000323565b8355505b6001600288020188555050505b505050505050565b61134880620004586000396000f3fe6080604052600436106100915760003560e01c80636352211e116100595780636352211e146101a357806370a08231146101e05780638aa0fdad1461021d5780638da5cb5b1461023957806395d89b411461026457610091565b806306fdde03146100965780631014c330146100c15780634e6ec247146100ff5780635a3f26721461012857806362b865d914610165575b600080fd5b3480156100a257600080fd5b506100ab61028f565b6040516100b89190610b26565b60405180910390f35b3480156100cd57600080fd5b506100e860048036038101906100e39190610b92565b61031d565b6040516100f6929190610bbf565b60405180910390f35b34801561010b57600080fd5b5061012660048036038101906101219190610c54565b610461565b005b34801561013457600080fd5b5061014f600480360381019061014a9190610c94565b610626565b60405161015c9190610d7f565b60405180910390f35b34801561017157600080fd5b5061018c60048036038101906101879190610b92565b6106bd565b60405161019a929190610bbf565b60405180910390f35b3480156101af57600080fd5b506101ca60048036038101906101c59190610b92565b610829565b6040516101d79190610db0565b60405180910390f35b3480156101ec57600080fd5b5061020760048036038101906102029190610c94565b6108a3565b6040516102149190610dda565b60405180910390f35b61023760048036038101906102329190610f2a565b6108ef565b005b34801561024557600080fd5b5061024e6109e2565b60405161025b9190610db0565b60405180910390f35b34801561027057600080fd5b50610279610a08565b6040516102869190610b26565b60405180910390f35b6003805461029c90610fd1565b80601f01602080910402602001604051908101604052809291908181526020018280546102c890610fd1565b80156103155780601f106102ea57610100808354040283529160200191610315565b820191906000526020600020905b8154815290600101906020018083116102f857829003601f168201915b505050505081565b6005818154811061032d57600080fd5b906000526020600020906002020160009150905080600001805461035090610fd1565b80601f016020809104026020016040519081016040528092919081815260200182805461037c90610fd1565b80156103c95780601f1061039e576101008083540402835291602001916103c9565b820191906000526020600020905b8154815290600101906020018083116103ac57829003601f168201915b5050505050908060010180546103de90610fd1565b80601f016020809104026020016040519081016040528092919081815260200182805461040a90610fd1565b80156104575780601f1061042c57610100808354040283529160200191610457565b820191906000526020600020905b81548152906001019060200180831161043a57829003601f168201915b5050505050905082565b600073ffffffffffffffffffffffffffffffffffffffff168273ffffffffffffffffffffffffffffffffffffffff160361049a57600080fd5b600073ffffffffffffffffffffffffffffffffffffffff1660008083815260200190815260200160002060009054906101000a900473ffffffffffffffffffffffffffffffffffffffff1673ffffffffffffffffffffffffffffffffffffffff161461050557600080fd5b8160008083815260200190815260200160002060006101000a81548173ffffffffffffffffffffffffffffffffffffffff021916908373ffffffffffffffffffffffffffffffffffffffff160217905550600160008373ffffffffffffffffffffffffffffffffffffffff1673ffffffffffffffffffffffffffffffffffffffff1681526020019081526020016000208190806001815401808255809150506001900390600052602060002001600090919091909150558173ffffffffffffffffffffffffffffffffffffffff16600073ffffffffffffffffffffffffffffffffffffffff167fddf252ad1be2c89b69c2b068fc378daa952ba7f163c4a11628f55a4df523b3ef8360405161061a9190610dda565b60405180910390a35050565b6060600160008373ffffffffffffffffffffffffffffffffffffffff1673ffffffffffffffffffffffffffffffffffffffff1681526020019081526020016000208054806020026020016040519081016040528092919081815260200182805480156106b157602002820191906000526020600020905b81548152602001906001019080831161069d575b50505050509050919050565b6060806000600584815481106106d6576106d5611002565b5b90600052602060002090600202016040518060400160405290816000820180546106ff90610fd1565b80601f016020809104026020016040519081016040528092919081815260200182805461072b90610fd1565b80156107785780601f1061074d57610100808354040283529160200191610778565b820191906000526020600020905b81548152906001019060200180831161075b57829003601f168201915b5050505050815260200160018201805461079190610fd1565b80601f01602080910402602001604051908101604052809291908181526020018280546107bd90610fd1565b801561080a5780601f106107df5761010080835404028352916020019161080a565b820191906000526020600020905b8154815290600101906020018083116107ed57829003601f168201915b5050505050815250509050806000015192508060200151915050915091565b60008060008084815260200190815260200160002060009054906101000a900473ffffffffffffffffffffffffffffffffffffffff169050600073ffffffffffffffffffffffffffffffffffffffff168173ffffffffffffffffffffffffffffffffffffffff160361089a57600080fd5b80915050919050565b6000600160008373ffffffffffffffffffffffffffffffffffffffff1673ffffffffffffffffffffffffffffffffffffffff168152602001908152602001600020805490509050919050565b600260009054906101000a900473ffffffffffffffffffffffffffffffffffffffff1673ffffffffffffffffffffffffffffffffffffffff163373ffffffffffffffffffffffffffffffffffffffff161461094957600080fd5b60006040518060400160405280848152602001838152509050600581908060018154018082558091505060019003906000526020600020906002020160009091909190915060008201518160000190816109a391906111dd565b5060208201518160010190816109b991906111dd565b505050600060016005805490506109d091906112de565b90506109dc3382610461565b50505050565b600260009054906101000a900473ffffffffffffffffffffffffffffffffffffffff1681565b60048054610a1590610fd1565b80601f0160208091040260200160405190810160405280929190818152602001828054610a4190610fd1565b8015610a8e5780601f10610a6357610100808354040283529160200191610a8e565b820191906000526020600020905b815481529060010190602001808311610a7157829003601f168201915b505050505081565b600081519050919050565b600082825260208201905092915050565b60005b83811015610ad0578082015181840152602081019050610ab5565b60008484015250505050565b6000601f19601f8301169050919050565b6000610af882610a96565b610b028185610aa1565b9350610b12818560208601610ab2565b610b1b81610adc565b840191505092915050565b60006020820190508181036000830152610b408184610aed565b905092915050565b6000604051905090565b600080fd5b600080fd5b6000819050919050565b610b6f81610b5c565b8114610b7a57600080fd5b50565b600081359050610b8c81610b66565b92915050565b600060208284031215610ba857610ba7610b52565b5b6000610bb684828501610b7d565b91505092915050565b60006040820190508181036000830152610bd98185610aed565b90508181036020830152610bed8184610aed565b90509392505050565b600073ffffffffffffffffffffffffffffffffffffffff82169050919050565b6000610c2182610bf6565b9050919050565b610c3181610c16565b8114610c3c57600080fd5b50565b600081359050610c4e81610c28565b92915050565b60008060408385031215610c6b57610c6a610b52565b5b6000610c7985828601610c3f565b9250506020610c8a85828601610b7d565b9150509250929050565b600060208284031215610caa57610ca9610b52565b5b6000610cb884828501610c3f565b91505092915050565b600081519050919050565b600082825260208201905092915050565b6000819050602082019050919050565b610cf681610b5c565b82525050565b6000610d088383610ced565b60208301905092915050565b6000602082019050919050565b6000610d2c82610cc1565b610d368185610ccc565b9350610d4183610cdd565b8060005b83811015610d72578151610d598882610cfc565b9750610d6483610d14565b925050600181019050610d45565b5085935050505092915050565b60006020820190508181036000830152610d998184610d21565b905092915050565b610daa81610c16565b82525050565b6000602082019050610dc56000830184610da1565b92915050565b610dd481610b5c565b82525050565b6000602082019050610def6000830184610dcb565b92915050565b600080fd5b600080fd5b7f4e487b7100000000000000000000000000000000000000000000000000000000600052604160045260246000fd5b610e3782610adc565b810181811067ffffffffffffffff82111715610e5657610e55610dff565b5b80604052505050565b6000610e69610b48565b9050610e758282610e2e565b919050565b600067ffffffffffffffff821115610e9557610e94610dff565b5b610e9e82610adc565b9050602081019050919050565b82818337600083830152505050565b6000610ecd610ec884610e7a565b610e5f565b905082815260208101848484011115610ee957610ee8610dfa565b5b610ef4848285610eab565b509392505050565b600082601f830112610f1157610f10610df5565b5b8135610f21848260208601610eba565b91505092915050565b60008060408385031215610f4157610f40610b52565b5b600083013567ffffffffffffffff811115610f5f57610f5e610b57565b5b610f6b85828601610efc565b925050602083013567ffffffffffffffff811115610f8c57610f8b610b57565b5b610f9885828601610efc565b9150509250929050565b7f4e487b7100000000000000000000000000000000000000000000000000000000600052602260045260246000fd5b60006002820490506001821680610fe957607f821691505b602082108103610ffc57610ffb610fa2565b5b50919050565b7f4e487b7100000000000000000000000000000000000000000000000000000000600052603260045260246000fd5b60008190508160005260206000209050919050565b60006020601f8301049050919050565b600082821b905092915050565b6000600883026110937fffffffffffffffffffffffffffffffffffffffffffffffffffffffffffffffff82611056565b61109d8683611056565b95508019841693508086168417925050509392505050565b6000819050919050565b60006110da6110d56110d084610b5c565b6110b5565b610b5c565b9050919050565b6000819050919050565b6110f4836110bf565b611108611100826110e1565b848454611063565b825550505050565b600090565b61111d611110565b6111288184846110eb565b505050565b5b8181101561114c57611141600082611115565b60018101905061112e565b5050565b601f8211156111915761116281611031565b61116b84611046565b8101602085101561117a578190505b61118e61118685611046565b83018261112d565b50505b505050565b600082821c905092915050565b60006111b460001984600802611196565b1980831691505092915050565b60006111cd83836111a3565b9150826002028217905092915050565b6111e682610a96565b67ffffffffffffffff8111156111ff576111fe610dff565b5b6112098254610fd1565b611214828285611150565b600060209050601f8311600181146112475760008415611235578287015190505b61123f85826111c1565b8655506112a7565b601f19841661125586611031565b60005b8281101561127d57848901518255600182019150602085019450602081019050611258565b8683101561129a5784890151611296601f8916826111a3565b8355505b6001600288020188555050505b505050505050565b7f4e487b7100000000000000000000000000000000000000000000000000000000600052601160045260246000fd5b60006112e982610b5c565b91506112f483610b5c565b925082820390508181111561130c5761130b6112af565b5b9291505056fea264697066735822122068a8129d44916ba8852ec655bf6cf25b1df6c351c3d350208e713a92f4e63e6164736f6c63430008110033",
  "immutableReferences": {},
  "source": "// SPDX-License-Identifier: GPL-3.0\n\npragma solidity >=0.7.0 <0.9.0;\n\nimport \"./ERC721Token.sol\";\nimport \"./Ownable.sol\";\n\ncontract PalToken is ERC721Token, Ownable {\n\n    string public name = \"PalToken\";\n    string public symbol = \"Pal\";\n\n    struct Pal {\n        string outer;\n        string inner;\n    }\n\n    Pal[] public pals;\n\n    function mint(string memory _outer, string memory _inner) public onlyOwner payable {\n        Pal memory newPal = Pal(_outer, _inner);\n        pals.push(newPal);\n        uint palId = pals.length -1;\n        _mint(msg.sender, palId);\n    }\n\n    function getPal(uint _palId) public view returns(string memory outer, string memory inner){\n        Pal memory _pal = pals[_palId];\n\n        outer = _pal.outer;\n        inner = _pal.inner;\n    }\n}",
  "sourcePath": "/home/abdallah/Documents/Blockchain/Projects/PalToken721/contracts/PalToken.sol",
  "compiler": {
    "name": "solc",
    "version": "0.8.17+commit.8df45f5f.Emscripten.clang"
  },
  "schemaVersion": "3.4.13",
  "updatedAt": "2023-03-31T07:38:57.970Z",
  "devdoc": {
    "kind": "dev",
    "methods": {},
    "version": 1
  },
  "userdoc": {
    "kind": "user",
    "methods": {},
    "version": 1
  }
}