{
  "contractName": "ERC721Token",
  "abi": [
    {
      "anonymous": false,
      "inputs": [
        {
          "indexed": true,
          "internalType": "address",
          "name": "_owner",
          "type": "address"
        },
        {
          "indexed": true,
          "internalType": "address",
          "name": "_approved",
          "type": "address"
        },
        {
          "indexed": false,
          "internalType": "uint256",
          "name": "_tokenId",
          "type": "uint256"
        }
      ],
      "name": "Approval",
      "type": "event"
    },
    {
      "anonymous": false,
      "inputs": [
        {
          "indexed": true,
          "internalType": "address",
          "name": "_from",
          "type": "address"
        },
        {
          "indexed": true,
          "internalType": "address",
          "name": "_to",
          "type": "address"
        },
        {
          "indexed": false,
          "internalType": "uint256",
          "name": "_tokenId",
          "type": "uint256"
        }
      ],
      "name": "Transfer",
      "type": "event"
    },
    {
      "inputs": [
        {
          "internalType": "address",
          "name": "_to",
          "type": "address"
        },
        {
          "internalType": "uint256",
          "name": "_tokenId",
          "type": "uint256"
        }
      ],
      "name": "_mint",
      "outputs": [],
      "stateMutability": "nonpayable",
      "type": "function"
    },
    {
      "inputs": [
        {
          "internalType": "uint256",
          "name": "_tokenId",
          "type": "uint256"
        }
      ],
      "name": "ownerOf",
      "outputs": [
        {
          "internalType": "address",
          "name": "",
          "type": "address"
        }
      ],
      "stateMutability": "view",
      "type": "function"
    },
    {
      "inputs": [
        {
          "internalType": "address",
          "name": "_owner",
          "type": "address"
        }
      ],
      "name": "balanceOf",
      "outputs": [
        {
          "internalType": "uint256",
          "name": "_balance",
          "type": "uint256"
        }
      ],
      "stateMutability": "view",
      "type": "function"
    },
    {
      "inputs": [
        {
          "internalType": "address",
          "name": "_owner",
          "type": "address"
        }
      ],
      "name": "tokensOf",
      "outputs": [
        {
          "internalType": "uint256[]",
          "name": "",
          "type": "uint256[]"
        }
      ],
      "stateMutability": "view",
      "type": "function"
    }
  ],
  "bytecode": "0x608060405234801561001057600080fd5b506106bc806100206000396000f3fe608060405234801561001057600080fd5b506004361061004c5760003560e01c80634e6ec247146100515780635a3f26721461006d5780636352211e1461009d57806370a08231146100cd575b600080fd5b61006b600480360381019061006691906104b8565b6100fd565b005b610087600480360381019061008291906104f8565b6102c2565b60405161009491906105e3565b60405180910390f35b6100b760048036038101906100b29190610605565b610359565b6040516100c49190610641565b60405180910390f35b6100e760048036038101906100e291906104f8565b6103d3565b6040516100f4919061066b565b60405180910390f35b600073ffffffffffffffffffffffffffffffffffffffff168273ffffffffffffffffffffffffffffffffffffffff160361013657600080fd5b600073ffffffffffffffffffffffffffffffffffffffff1660008083815260200190815260200160002060009054906101000a900473ffffffffffffffffffffffffffffffffffffffff1673ffffffffffffffffffffffffffffffffffffffff16146101a157600080fd5b8160008083815260200190815260200160002060006101000a81548173ffffffffffffffffffffffffffffffffffffffff021916908373ffffffffffffffffffffffffffffffffffffffff160217905550600160008373ffffffffffffffffffffffffffffffffffffffff1673ffffffffffffffffffffffffffffffffffffffff1681526020019081526020016000208190806001815401808255809150506001900390600052602060002001600090919091909150558173ffffffffffffffffffffffffffffffffffffffff16600073ffffffffffffffffffffffffffffffffffffffff167fddf252ad1be2c89b69c2b068fc378daa952ba7f163c4a11628f55a4df523b3ef836040516102b6919061066b565b60405180910390a35050565b6060600160008373ffffffffffffffffffffffffffffffffffffffff1673ffffffffffffffffffffffffffffffffffffffff16815260200190815260200160002080548060200260200160405190810160405280929190818152602001828054801561034d57602002820191906000526020600020905b815481526020019060010190808311610339575b50505050509050919050565b60008060008084815260200190815260200160002060009054906101000a900473ffffffffffffffffffffffffffffffffffffffff169050600073ffffffffffffffffffffffffffffffffffffffff168173ffffffffffffffffffffffffffffffffffffffff16036103ca57600080fd5b80915050919050565b6000600160008373ffffffffffffffffffffffffffffffffffffffff1673ffffffffffffffffffffffffffffffffffffffff168152602001908152602001600020805490509050919050565b600080fd5b600073ffffffffffffffffffffffffffffffffffffffff82169050919050565b600061044f82610424565b9050919050565b61045f81610444565b811461046a57600080fd5b50565b60008135905061047c81610456565b92915050565b6000819050919050565b61049581610482565b81146104a057600080fd5b50565b6000813590506104b28161048c565b92915050565b600080604083850312156104cf576104ce61041f565b5b60006104dd8582860161046d565b92505060206104ee858286016104a3565b9150509250929050565b60006020828403121561050e5761050d61041f565b5b600061051c8482850161046d565b91505092915050565b600081519050919050565b600082825260208201905092915050565b6000819050602082019050919050565b61055a81610482565b82525050565b600061056c8383610551565b60208301905092915050565b6000602082019050919050565b600061059082610525565b61059a8185610530565b93506105a583610541565b8060005b838110156105d65781516105bd8882610560565b97506105c883610578565b9250506001810190506105a9565b5085935050505092915050565b600060208201905081810360008301526105fd8184610585565b905092915050565b60006020828403121561061b5761061a61041f565b5b6000610629848285016104a3565b91505092915050565b61063b81610444565b82525050565b60006020820190506106566000830184610632565b92915050565b61066581610482565b82525050565b6000602082019050610680600083018461065c565b9291505056fea2646970667358221220dbfe0014c69222695477242cc8ea68d15291a2df0eda7cdc4634bd4cded8b84f64736f6c63430008110033",
  "immutableReferences": {},
  "source": "// SPDX-License-Identifier: GPL-3.0\r\n\r\npragma solidity >=0.7.0 <0.9.0;\r\n\r\nimport \"./ERC721.sol\";\r\nimport \"./SafeMath.sol\";\r\n\r\ncontract ERC721Token is ERC721 {\r\n    using SafeMath for uint;\r\n\r\n    mapping(uint => address) private tokenOwner;\r\n    mapping(address => uint[]) private ownedTokens;\r\n\r\n    function _mint(address _to, uint _tokenId) public {\r\n        require(_to != address(0));\r\n        require(tokenOwner[_tokenId] == address(0));\r\n\r\n        tokenOwner[_tokenId] = _to;\r\n\r\n        ownedTokens[_to].push(_tokenId);\r\n\r\n        emit Transfer(address(0), _to, _tokenId);\r\n    }\r\n\r\n    function ownerOf(uint _tokenId) public view override returns(address){\r\n        address owner = tokenOwner[_tokenId];\r\n        require(owner != address(0));\r\n        return owner;\r\n    }\r\n\r\n    function balanceOf(address _owner) public view override returns (uint _balance) {\r\n        return ownedTokens[_owner].length;\r\n    }\r\n\r\n    function tokensOf(address _owner) public view returns(uint[] memory){\r\n        return ownedTokens[_owner];\r\n    }\r\n\r\n\r\n    // function transfer(address _to, uint _tokenId) public override {}\r\n\r\n    // function approve(address _to, uint _tokenId) public override {}\r\n}",
  "sourcePath": "/home/abdallah/Documents/Blockchain/Projects/PalToken721/contracts/ERC721Token.sol",
  "compiler": {
    "name": "solc",
    "version": "0.8.17+commit.8df45f5f.Emscripten.clang"
  },
  "schemaVersion": "3.4.13",
  "updatedAt": "2023-03-31T07:38:57.951Z",
  "devdoc": {
    "kind": "dev",
    "methods": {},
    "version": 1
  },
  "userdoc": {
    "kind": "user",
    "methods": {},
    "version": 1
  }
}